:030000000203ED0B
:10000300C28C758C93758A7FC28DD28C308DFD2204
:10001300E5302401D4B4601D753000E5312401D4EA
:10002300B46015753100E5322401D4B4240D1200F7
:0E0033007B75320022F53022F53122F53222A3
:10004100E534B40213E53575F00484E5F0B4000439
:1000510075363022753629225410B41009E534540E
:1000610001B40009800BE5345409B400047536313C
:1000710022B4090280F775363222E5332401D4B562
:100081003619753301E5342401D4B41311753401E3
:10009100E5352401D4B4A00CE48009F53322F5340C
:1000A10012004122F53522120041E536C395334055
:1000B10003B4000FE536B4300475332922C394012B
:0400C100F5332222CF
:1000C5009003E320033E20024E200079E532540FD1
:1000D50093F58EE532C4540F93F58FE531540F93A4
:1000E500F593E531C4540F93F594200110E5305490
:1000F5000F93F591E530C4540F93F592227591FF56
:100105007592FF227591FF7592FF7593FF7594FFA8
:10011500758EFF758FFF22E535540F93F591E53503
:10012500C4540F93F592E533540F93F593E533C417
:10013500540F93F594E534540F93F58EE534C45478
:100145000F93F58F22E531540F93F593E531C454A0
:100155000F93F594C3E5329412402FB40011741235
:10016500540F93F58E7412C4540F93F58F8042FB90
:10017500540F940A4004EB9406FBEB540F93F58E51
:10018500EBC4540F93F58FC38027E532B400127486
:1001950012540F93F58E7412C4540F93F58FD380B8
:1001A50010D3E532540F93F58EE532C4540F93F511
:1001B5008F200110E530540F93F591E530C4540FAD
:1001C50093F592227591C8400475928C2275928898
:1001D500229003E3B9006E20E920E531540F93F531
:1001E50093E531C4540F93F594E532540F93F58E8E
:1001F500E532C4540F93F58F801EE533540F93F504
:1002050093E533C4540F93F594E534540F93F58E69
:10021500E534C4540F93F58F20052320E910E5300C
:10022500540F93F591E530C4540F93F59222E535BB
:10023500540F93F591E535C4540F93F592227591BA
:10024500FF7592FF22B9016E20E920E530540F9326
:10025500F591E530C4540F93F592E532540F93F5BB
:100265008EE532C4540F93F58F801EE535540F93F8
:10027500F591E535C4540F93F592E534540F93F594
:100285008EE534C4540F93F58F20052320E910E53E
:1002950031540F93F593E531C4540F93F59422E54A
:1002A50033540F93F593E533C4540F93F5942275A6
:1002B50093FF7594FF2220E920E530540F93F591C3
:1002C500E530C4540F93F592E531540F93F593E55A
:1002D50031C4540F93F594801EE533540F93F59371
:1002E500E533C4540F93F594E535540F93F591E533
:1002F50035C4540F93F59220052320E910E53254B7
:100305000F93F58EE532C4540F93F58F22E53454DF
:100315000F93F58EE534C4540F93F58F22758EFF38
:04032500758FFF22AF
:10032900B9000F20E906AA3078308027AA35783538
:100339008021B9010F20E906AA3178318015AA3345
:100349007833800F20E906AA3278328006AA3478F9
:10035900348000EA20062F2401D420E90FB90206CF
:10036900B42465E48062B4605FE4805CB90207B4D8
:10037900135674018052B90107B5364C740180488F
:10038900B4A045E4804220E90EB4002CB9020474FB
:1003990023803574598031B90207B4011B74128066
:1003A90027B9010DB40111E536FA800CC394018017
:1003B90017B4000474998010540FB40007EA24F0AC
:1003C90044098004EAC39401F6C20578002220E8B2
:0A03D9000620E903C20422D2042228
:1003E300C0F9A4B0999282F8809075817F758901D4
:1003F300E4F5E8F595F8F530F531F5327533017527
:100403003401753500120041C200C201C202C203A9
:10041300C204C205C20680001200031203D72004DF
:100423003920FB0530FBFDB20020FA0530FAFDB29E
:100433000120F90730F9FDD2027C0020F80530F8DD
:10044300FDB2033002060CBCC802C2021200C5088A
:10045300B864C5120013780080BE78007900C20228
:10046300D20512000320FB0930FBFD09B903027911
:100473000020F80930F8FD19B9FF02790220FA0BC0
:1004830030FAFDC20612032912004120F90B30F99C
:10049300FDD2061203291200411201D6081203D716
:0F04A300300409B828BCB205780080B602041BEB
:00000001FF
