:03000000020227D2
:100003009001E120003B20014BE532540F93F58E24
:10001300E532C4540F93F58FE531540F93F593E50F
:1000230031C4540F93F594200210E530540F93F527
:1000330091E530C4540F93F592227591FF7592FFA9
:10004300227591FF7592FF7593FF7594FF758EFF6F
:10005300758FFF22E531540F93F593E531C4540FA7
:1000630093F594C3E5329412402FB40011741254E3
:100073000F93F58E7412C4540F93F58F8042FB5483
:100083000F940A4004EB9406FBEB540F93F58EEBAD
:10009300C4540F93F58FC38027E532B40012741252
:1000A300540F93F58E7412C4540F93F58FD38010AD
:1000B300D3E532540F93F58EE532C4540F93F58F85
:1000C300200210E530540F93F591E530C4540F939B
:1000D300F592227591C8400475928C2275928822FC
:1000E300B90038E531540F93F593E531C4540F93B8
:1000F300F594E532540F93F58EE532C4540F93F51E
:100103008F200310E530540F93F591E530C4540F5D
:1001130093F5922275917F75927F22B90138E5306C
:10012300540F93F591E530C4540F93F592E532548F
:100133000F93F58EE532C4540F93F58F200310E52A
:1001430031540F93F593E531C4540F93F59422750D
:10015300937F75947F22E530540F93F591E530C476
:10016300540F93F592E531540F93F593E531C4544D
:100173000F93F594200310E532540F93F58EE53277
:10018300C4540F93F58F22758E7F758F7F22B9002C
:1001930006AA307830800DB90106AA31783180047F
:1001A300AA327832EA2004122401D4B90206B42414
:1001B30027E48024B46021E4801EB4000BB9020458
:1001C3007423801474598010540FB40007EA24F088
:0E01D30044098004EAC39401F6C203780022B6
:1001E100C0F9A4B0999282F88090C28C758C9375F5
:1001F1008A7FC28DD28C308DFD22E5302401D4B4AA
:10020100601BE4F530E5312401D4B46013E4F53129
:10021100E5322401D4B4240B7400F53222F53022E6
:10022100F53122F5322275817F758901E4F5E8F512
:1002310095F8F9F530F531F532F533F534F535C288
:1002410000C201C20280001201EB20E82620FB055A
:1002510030FBFDB20020FA0530FAFDB20120F905AC
:1002610030F9FDB20212000308B864DB1201FB7819
:100271000080D478007900D2031201EB20FB093011
:10028100FBFD09B90302790020F80930F8FD19B91D
:10029100FF02790220FA0830FAFDC204120191200E
:1002A100F90830F9FDD2041201911200E30830E897
:0A02B10096B828C5B203780080BF9C
:00000001FF
