:030000000203D721
:10000300C28C758C93758A7FC28DD28C308DFD2204
:10001300E5302401D4B46020753000E5312401D4E7
:10002300B46018753100E5322401D4B424101200F1
:10003300B275320012004722F53022F53122F53233
:1000430012004722C3E53294124009B400157536F5
:1000530012D20222C202E532B4000475361222859E
:10006300323622D202FB540F940A4006EB9406F573
:0500730036228B36224D
:10007800E534B40213E53575F00484E5F0B4000402
:1000880075373022753729225410B41009E53454D5
:1000980001B40009800BE5345409B4000475373104
:1000A80022B4090280F775373222E5332401D4B52A
:1000B8003719753301E5342401D4B41311753401AB
:1000C800E5352401D4B4A00CE48009F53322F534D5
:1000D80012007822F53522120078E537C3953340AF
:1000E80003B4000FE537B4300475332922C39401F3
:0400F800F533222298
:1000FC009003CD20043E20034E200079E532540FAE
:10010C0093F58EE532C4540F93F58FE531540F936C
:10011C00F593E531C4540F93F594200110E5305458
:10012C000F93F591E530C4540F93F592227591FF1E
:10013C007592FF227591FF7592FF7593FF7594FF71
:10014C00758EFF758FFF22E535540F93F591E535CC
:10015C00C4540F93F592E533540F93F593E533C4E0
:10016C00540F93F594E534540F93F58EE534C45441
:10017C000F93F58F22E536540F93F58EE536C45464
:10018C000F93F58FE531540F93F593E531C4540F6C
:10019C0093F594200110E530540F93F591E530C49C
:1001AC00540F93F592227591C820020475928822FF
:1001BC0075928C229003CDB9006E20E920E5315464
:1001CC000F93F593E531C4540F93F594E532540F26
:1001DC0093F58EE532C4540F93F58F801EE533549E
:1001EC000F93F593E533C4540F93F594E534540F02
:1001FC0093F58EE534C4540F93F58F20062320E934
:10020C0010E530540F93F591E530C4540F93F592EB
:10021C0022E535540F93F591E535C4540F93F592BF
:10022C00227591FF7592FF22B9016E20E920E5300D
:10023C00540F93F591E530C4540F93F592E5325475
:10024C000F93F58EE532C4540F93F58F801EE53570
:10025C00540F93F591E535C4540F93F592E534544E
:10026C000F93F58EE534C4540F93F58F200623209D
:10027C00E910E531540F93F593E531C4540F93F520
:10028C009422E533540F93F593E533C4540F93F54F
:10029C0094227593FF7594FF2220E920E530540FCA
:1002AC0093F591E530C4540F93F592E531540F93C7
:1002BC00F593E531C4540F93F594801EE533540F38
:1002CC0093F593E533C4540F93F594E535540F939C
:1002DC00F591E535C4540F93F59220062320E910CF
:1002EC00E532540F93F58EE532C4540F93F58F22FB
:1002FC00E534540F93F58EE534C4540F93F58F22E7
:07030C00758EFF758FFF22C3
:1003130020E80620E903C20522D20522B9000F20F6
:10032300E906AA3078308027AA3578358021B901CB
:100333000F20E906AA3178318015AA337833800F6C
:1003430020E906AA3278328006AA3478348000EA9B
:1003530020072F2401D420E90FB90206B42465E451
:100363008062B4605FE4805CB90207B41356740121
:100373008052B90107B5374C74018048B4A045E4F5
:10038300804220E90EB4002CB90204742380357432
:10039300598031B90207B4011B74128027B9010DCA
:1003A300B40111E537FA800CC394018017B400043B
:1003B30074998010540FB40007EA24F044098004B0
:0A03C300EAC39401F6C20678002296
:1003CD00C0F9A4B0999282F8809075817F758901EA
:1003DD00E4F5E8F595F8F530F531F532753301753D
:1003ED003401753524120078120047C200C201C2D3
:1003FD0003C204C205C206C2078000120003120325
:10040D001320053920FB0530FBFDB20020FA053025
:10041D00FAFDB20120F90730F9FDD2037C0020F876
:10042D000530F8FDB2043003060CBCC802C203123D
:10043D0000FC08B864C5120013780080BE780079FE
:10044D0000C203D20612000320FB0930FBFD09B9DF
:10045D000302790020F80930F8FD19B9FF0279027D
:10046D0020FA0B30FAFDC20712031F12007820F993
:10047D000B30F9FDD20712031F1200781201C008CC
:10048D00120313300509B828BCB206780080B612E5
:05049D00004702040805
:00000001FF
