:030000000203DC1C
:10000300C28C758C93758A7FC28DD28C308DFD2204
:10001300E5302401D4B46025753000E5312401D4E2
:10002300B4601D7531007530017828E5322401D4A0
:10003300B424101200B775320012004C22F530229E
:10004300F53122F53212004C22C3E53294124009F5
:10005300B40015753612D20222C202E532B400048E
:100063007536122285323622D202FB540F940A408F
:0A00730006EB9406F536228B3622C8
:10007D00E534B40213E53575F00484E5F0B40004FD
:10008D0075373022753729225410B41009E53454D0
:10009D0001B40009800BE5345409B40004753731FF
:1000AD0022B4090280F775373222E5332401D4B525
:1000BD003719753301E5342401D4B41311753401A6
:1000CD00E5352401D4B4A00CE48009F53322F534D0
:1000DD0012007D22F5352212007DE537C3953340A0
:1000ED0003B4000FE537B4300475332922C39401EE
:0400FD00F533222293
:100101009003D220043E20034E200079E532540FA3
:1001110093F58EE532C4540F93F58FE531540F9367
:10012100F593E531C4540F93F594200110E5305453
:100131000F93F591E530C4540F93F592227591FF19
:100141007592FF227591FF7592FF7593FF7594FF6C
:10015100758EFF758FFF22E535540F93F591E535C7
:10016100C4540F93F592E533540F93F593E533C4DB
:10017100540F93F594E534540F93F58EE534C4543C
:100181000F93F58F22E536540F93F58EE536C4545F
:100191000F93F58FE531540F93F593E531C4540F67
:1001A10093F594200110E530540F93F591E530C497
:1001B100540F93F592227591C820020475928822FA
:1001C10075928C229003D2B9006E20E920E531545A
:1001D1000F93F593E531C4540F93F594E532540F21
:1001E10093F58EE532C4540F93F58F801EE5335499
:1001F1000F93F593E533C4540F93F594E534540FFD
:1002010093F58EE534C4540F93F58F20062320E92E
:1002110010E530540F93F591E530C4540F93F592E6
:1002210022E535540F93F591E535C4540F93F592BA
:10023100227591FF7592FF22B9016E20E920E53008
:10024100540F93F591E530C4540F93F592E5325470
:100251000F93F58EE532C4540F93F58F801EE5356B
:10026100540F93F591E535C4540F93F592E5345449
:100271000F93F58EE534C4540F93F58F2006232098
:10028100E910E531540F93F593E531C4540F93F51B
:100291009422E533540F93F593E533C4540F93F54A
:1002A10094227593FF7594FF2220E920E530540FC5
:1002B10093F591E530C4540F93F592E531540F93C2
:1002C100F593E531C4540F93F594801EE533540F33
:1002D10093F593E533C4540F93F594E535540F9397
:1002E100F591E535C4540F93F59220062320E910CA
:1002F100E532540F93F58EE532C4540F93F58F22F6
:10030100E534540F93F58EE534C4540F93F58F22E1
:07031100758EFF758FFF22BE
:1003180020E80620E903C20522D20522B9000F20F1
:10032800E906AA3078308027AA3578358021B901C6
:100338000F20E906AA3178318015AA337833800F67
:1003480020E906AA3278328006AA3478348000EA96
:1003580020072F2401D420E90FB90206B42465E44C
:100368008062B4605FE4805CB90207B4135674011C
:100378008052B90107B5374C74018048B4A045E4F0
:10038800804220E90EB4002CB9020474238035742D
:10039800598031B90207B4011B74128027B9010DC5
:1003A800B40111E537FA800CC394018017B4000436
:1003B80074998010540FB40007EA24F044098004AB
:0A03C800EAC39401F6C20678002291
:1003D200C0F9A4B0999282F8809075817F758901E5
:1003E200E4F5E8F595F8F530F531F5327533017538
:1003F200340175352412007D12004CC200C201C2C4
:1004020003C204C205C206C207800012000312031F
:100412001820053920FB0530FBFDB20020FA05301B
:10042200FAFDB20120F90730F9FDD2037C0020F871
:100432000530F8FDB2043003060CBCC802C2031238
:10044200010108B864C5780012001380BE780079F3
:1004520000C203D20612000320FB0930FBFD09B9DA
:100462000302790020F80930F8FD19B9FF02790278
:1004720020FA0B30FAFDC20712032412007D20F984
:100482000B30F9FDD20712032412007D1201C508B8
:10049200120318300509B828BCB206780080B612DB
:0504A200004C02040DF6
:00000001FF
