:030000000203F305
:10000300C0F9A4B0999282F88090C28C758C9375D4
:100013008A7FC28DD28C308DFD2290000320033E57
:1000230020024E200079E532540F93F58EE532C459
:10003300540F93F58FE531540F93F593E531C45481
:100043000F93F594200110E530540F93F591E530AB
:10005300C4540F93F592227591FF7592FF22759107
:10006300FF7592FF7593FF7594FF758EFF758FFF74
:1000730022E535540F93F591E535C4540F93F5926A
:10008300E533540F93F593E533C4540F93F594E597
:1000930034540F93F58EE534C4540F93F58F22E552
:1000A30031540F93F593E531C4540F93F594C3E59D
:1000B300329412402FB400117412540F93F58E74BE
:1000C30012C4540F93F58F8042FB540F940A4004DB
:1000D300EB9406FBEB540F93F58EEBC4540F93F59F
:1000E3008FC38027E532B400127412540F93F58E38
:1000F3007412C4540F93F58FD38010D3E532540F89
:1001030093F58EE532C4540F93F58F200110E5303B
:10011300540F93F591E530C4540F93F592227591E2
:10012300C8400475928C2275928822B9006E20E92A
:1001330020E531540F93F593E531C4540F93F594AF
:10014300E532540F93F58EE532C4540F93F58F8047
:100153001EE533540F93F593E533C4540F93F5948D
:10016300E534540F93F58EE534C4540F93F58F2083
:10017300052320E910E530540F93F591E530C4547D
:100183000F93F59222E535540F93F591E535C45459
:100193000F93F5922275917F75927F22B9016E209C
:1001A300E920E530540F93F591E530C4540F93F5EE
:1001B30092E532540F93F58EE532C4540F93F58FC5
:1001C300801EE535540F93F591E535C4540F93F52F
:1001D30092E534540F93F58EE534C4540F93F58FA1
:1001E30020052320E910E531540F93F593E531C43D
:1001F300540F93F59422E533540F93F593E533C4E9
:10020300540F93F5942275937F75947F2220E920F0
:10021300E530540F93F591E530C4540F93F592E50F
:1002230031540F93F593E531C4540F93F594801E25
:10023300E533540F93F593E533C4540F93F594E5E5
:1002430035540F93F591E535C4540F93F59220057A
:100253002320E910E532540F93F58EE532C4540F91
:1002630093F58F22E534540F93F58EE534C4540F80
:1002730093F58F22758E7F758F7F22E5302401D40D
:10028300B4601DE4F530E5312401D4B46015E4F520
:1002930031E5322401D4B4240D1202E8E4F532220C
:1002A300F53022F53122F53222E534B40213E53577
:1002B30075F00484E5F0B4000475363022753629F0
:1002C300225410B41009E5345401B4000B800DE539
:1002D300345409B40006800075363122B409028013
:1002E300F775363222E5332401D4B5361975330157
:1002F300E5342401D4B41311753401E5352401D454
:10030300B4A00CE48009F53322F5341202AC22F5D3
:1003130035221202ACE536C395334003B4000FE532
:1003230036B4300475332922C39401F5332222B93C
:10033300000F20E906AA3078308027AA3578358067
:1003430021B9010F20E906AA3178318015AA337843
:1003530033800F20E906AA3278328006AA34783433
:100363008000EA20062F2401D420E90FB90206B445
:100373002469E48066B46063E48060B90207B4135F
:100383005A74018056B90107B536507401804CB4D4
:10039300A049E4804620E90EB40030B90204742376
:1003A300803974598035B90207B4011F7412802B48
:1003B300B90111B40115E536B430047429801CC3A6
:1003C30094018017B4000474998010540FB400078B
:1003D300EA24F044098004EAC39401F6C2057800D4
:1003E3001203152220E80620E903C20422D20422C4
:1003F30075817F758901E4F5E8F595F8F9F530F530
:1004030031F5327533017534017535001202ACC212
:1004130003C200C201800012000D1203E720043959
:1004230020FB0530FBFDB20020FA0530FAFDB201D6
:1004330020F90730F9FDD2027C0020F80530F8FDE1
:10044300B20312001D083002060CBCC802C202B877
:1004530063C512027E780080BE78007900C202D2A2
:100463000512000D20FB0930FBFD09B903027900D9
:1004730020F80930F8FD19B9FF02790220FA0B3090
:10048300FAFDC2061203321202AC20F90B30F9FD59
:10049300D2061203321202AC12012E081203E73005
:0E04A3000409B828BCB205780080B602041A1D
:00000001FF
